{
  "transactions": [
    {
      "hash": "0x9cd6a856ecf0f9e1e82a48a8c3829091cec7b17762d940ae5a48eb3e4b0ed414",
      "transactionType": "CREATE",
      "contractName": "MockERC20",
      "contractAddress": "0x5fbdb2315678afecb367f032d93f642f64180aa3",
      "function": null,
      "arguments": [
        "Mock Wrapped Bitcoin",
        "mWBTC",
        "18"
      ],
      "transaction": {
        "from": "0xf39fd6e51aad88f6f4ce6ab8827279cfffb92266",
        "to": null,
        "gas": "0xa3e4c",
        "value": "0x0",
        "input": "0x60a060405234801562000010575f80fd5b5060405162000a0738038062000a07833981016040819052620000339162000131565b5f6200004084826200023a565b5060016200004f83826200023a565b5060ff166080525050600380546001600160a01b0319163317905562000306565b634e487b7160e01b5f52604160045260245ffd5b5f82601f83011262000094575f80fd5b81516001600160401b0380821115620000b157620000b162000070565b604051601f8301601f19908116603f01168101908282118183101715620000dc57620000dc62000070565b8160405283815260209250866020858801011115620000f9575f80fd5b5f91505b838210156200011c5785820183015181830184015290820190620000fd565b5f602085830101528094505050505092915050565b5f805f6060848603121562000144575f80fd5b83516001600160401b03808211156200015b575f80fd5b620001698783880162000084565b945060208601519150808211156200017f575f80fd5b506200018e8682870162000084565b925050604084015160ff81168114620001a5575f80fd5b809150509250925092565b600181811c90821680620001c557607f821691505b602082108103620001e457634e487b7160e01b5f52602260045260245ffd5b50919050565b601f8211156200023557805f5260205f20601f840160051c81016020851015620002115750805b601f840160051c820191505b8181101562000232575f81556001016200021d565b50505b505050565b81516001600160401b0381111562000256576200025662000070565b6200026e81620002678454620001b0565b84620001ea565b602080601f831160018114620002a4575f84156200028c5750858301515b5f19600386901b1c1916600185901b178555620002fe565b5f85815260208120601f198616915b82811015620002d457888601518255948401946001909101908401620002b3565b5085821015620002f257878501515f19600388901b60f8161c191681555b505060018460011b0185555b505050505050565b6080516106e86200031f5f395f61011a01526106e85ff3fe608060405234801561000f575f80fd5b50600436106100a6575f3560e01c806340c10f191161006e57806340c10f191461014e57806370a08231146101635780638da5cb5b1461018257806395d89b41146101ad578063a9059cbb146101b5578063dd62ed3e146101c8575f80fd5b806306fdde03146100aa578063095ea7b3146100c857806318160ddd146100eb57806323b872dd14610102578063313ce56714610115575b5f80fd5b6100b26101f2565b6040516100bf9190610527565b60405180910390f35b6100db6100d636600461058e565b61027d565b60405190151581526020016100bf565b6100f460025481565b6040519081526020016100bf565b6100db6101103660046105b6565b6102e9565b61013c7f000000000000000000000000000000000000000000000000000000000000000081565b60405160ff90911681526020016100bf565b61016161015c36600461058e565b610370565b005b6100f46101713660046105ef565b60046020525f908152604090205481565b600354610195906001600160a01b031681565b6040516001600160a01b0390911681526020016100bf565b6100b2610421565b6100db6101c336600461058e565b61042e565b6100f46101d636600461060f565b600560209081525f928352604080842090915290825290205481565b5f80546101fe90610640565b80601f016020809104026020016040519081016040528092919081815260200182805461022a90610640565b80156102755780601f1061024c57610100808354040283529160200191610275565b820191905f5260205f20905b81548152906001019060200180831161025857829003601f168201915b505050505081565b335f8181526005602090815260408083206001600160a01b038716808552925280832085905551919290917f8c5be1e5ebec7d5bd14f71427d1e84f3dd0314c0f7b2291e5b200ac8c7c3b925906102d79086815260200190565b60405180910390a35060015b92915050565b6001600160a01b0383165f9081526005602090815260408083203384529091528120548281101561032d576040516313be252b60e01b815260040160405180910390fd5b610337838261068c565b6001600160a01b0386165f908152600560209081526040808320338452909152902055610365858585610443565b506001949350505050565b6003546001600160a01b0316331461039b576040516330cd747160e01b815260040160405180910390fd5b8060025f8282546103ac919061069f565b90915550506001600160a01b0382165f90815260046020526040812080548392906103d890849061069f565b90915550506040518181526001600160a01b038316905f907fddf252ad1be2c89b69c2b068fc378daa952ba7f163c4a11628f55a4df523b3ef9060200160405180910390a35050565b600180546101fe90610640565b5f61043a338484610443565b50600192915050565b6001600160a01b0383165f9081526004602052604090205481111561047b57604051631e9acf1760e31b815260040160405180910390fd5b6001600160a01b0383165f90815260046020526040812080548392906104a290849061068c565b90915550506001600160a01b0382165f90815260046020526040812080548392906104ce90849061069f565b92505081905550816001600160a01b0316836001600160a01b03167fddf252ad1be2c89b69c2b068fc378daa952ba7f163c4a11628f55a4df523b3ef8360405161051a91815260200190565b60405180910390a3505050565b5f602080835283518060208501525f5b8181101561055357858101830151858201604001528201610537565b505f604082860101526040601f19601f8301168501019250505092915050565b80356001600160a01b0381168114610589575f80fd5b919050565b5f806040838503121561059f575f80fd5b6105a883610573565b946020939093013593505050565b5f805f606084860312156105c8575f80fd5b6105d184610573565b92506105df60208501610573565b9150604084013590509250925092565b5f602082840312156105ff575f80fd5b61060882610573565b9392505050565b5f8060408385031215610620575f80fd5b61062983610573565b915061063760208401610573565b90509250929050565b600181811c9082168061065457607f821691505b60208210810361067257634e487b7160e01b5f52602260045260245ffd5b50919050565b634e487b7160e01b5f52601160045260245ffd5b818103818111156102e3576102e3610678565b808201808211156102e3576102e361067856fea264697066735822122043a36b24815dcf4210ca665c993c46b4b99bf7fc912806ed550f4f78bed0d7d264736f6c63430008180033000000000000000000000000000000000000000000000000000000000000006000000000000000000000000000000000000000000000000000000000000000a0000000000000000000000000000000000000000000000000000000000000001200000000000000000000000000000000000000000000000000000000000000144d6f636b205772617070656420426974636f696e00000000000000000000000000000000000000000000000000000000000000000000000000000000000000056d57425443000000000000000000000000000000000000000000000000000000",
        "nonce": "0x0",
        "chainId": "0x7a69"
      },
      "additionalContracts": [],
      "isFixedGasLimit": false
    },
    {
      "hash": "0x630b551fe52f0f412cde37703fdedcd3fb666ab394467ce02772ac89bf08e9f3",
      "transactionType": "CREATE",
      "contractName": "MockERC20",
      "contractAddress": "0xe7f1725e7734ce288f8367e1bb143e90bb3f0512",
      "function": null,
      "arguments": [
        "Mock USD Coin",
        "mUSDC",
        "18"
      ],
      "transaction": {
        "from": "0xf39fd6e51aad88f6f4ce6ab8827279cfffb92266",
        "to": null,
        "gas": "0xa3ddf",
        "value": "0x0",
        "input": "0x60a060405234801562000010575f80fd5b5060405162000a0738038062000a07833981016040819052620000339162000131565b5f6200004084826200023a565b5060016200004f83826200023a565b5060ff166080525050600380546001600160a01b0319163317905562000306565b634e487b7160e01b5f52604160045260245ffd5b5f82601f83011262000094575f80fd5b81516001600160401b0380821115620000b157620000b162000070565b604051601f8301601f19908116603f01168101908282118183101715620000dc57620000dc62000070565b8160405283815260209250866020858801011115620000f9575f80fd5b5f91505b838210156200011c5785820183015181830184015290820190620000fd565b5f602085830101528094505050505092915050565b5f805f6060848603121562000144575f80fd5b83516001600160401b03808211156200015b575f80fd5b620001698783880162000084565b945060208601519150808211156200017f575f80fd5b506200018e8682870162000084565b925050604084015160ff81168114620001a5575f80fd5b809150509250925092565b600181811c90821680620001c557607f821691505b602082108103620001e457634e487b7160e01b5f52602260045260245ffd5b50919050565b601f8211156200023557805f5260205f20601f840160051c81016020851015620002115750805b601f840160051c820191505b8181101562000232575f81556001016200021d565b50505b505050565b81516001600160401b0381111562000256576200025662000070565b6200026e81620002678454620001b0565b84620001ea565b602080601f831160018114620002a4575f84156200028c5750858301515b5f19600386901b1c1916600185901b178555620002fe565b5f85815260208120601f198616915b82811015620002d457888601518255948401946001909101908401620002b3565b5085821015620002f257878501515f19600388901b60f8161c191681555b505060018460011b0185555b505050505050565b6080516106e86200031f5f395f61011a01526106e85ff3fe608060405234801561000f575f80fd5b50600436106100a6575f3560e01c806340c10f191161006e57806340c10f191461014e57806370a08231146101635780638da5cb5b1461018257806395d89b41146101ad578063a9059cbb146101b5578063dd62ed3e146101c8575f80fd5b806306fdde03146100aa578063095ea7b3146100c857806318160ddd146100eb57806323b872dd14610102578063313ce56714610115575b5f80fd5b6100b26101f2565b6040516100bf9190610527565b60405180910390f35b6100db6100d636600461058e565b61027d565b60405190151581526020016100bf565b6100f460025481565b6040519081526020016100bf565b6100db6101103660046105b6565b6102e9565b61013c7f000000000000000000000000000000000000000000000000000000000000000081565b60405160ff90911681526020016100bf565b61016161015c36600461058e565b610370565b005b6100f46101713660046105ef565b60046020525f908152604090205481565b600354610195906001600160a01b031681565b6040516001600160a01b0390911681526020016100bf565b6100b2610421565b6100db6101c336600461058e565b61042e565b6100f46101d636600461060f565b600560209081525f928352604080842090915290825290205481565b5f80546101fe90610640565b80601f016020809104026020016040519081016040528092919081815260200182805461022a90610640565b80156102755780601f1061024c57610100808354040283529160200191610275565b820191905f5260205f20905b81548152906001019060200180831161025857829003601f168201915b505050505081565b335f8181526005602090815260408083206001600160a01b038716808552925280832085905551919290917f8c5be1e5ebec7d5bd14f71427d1e84f3dd0314c0f7b2291e5b200ac8c7c3b925906102d79086815260200190565b60405180910390a35060015b92915050565b6001600160a01b0383165f9081526005602090815260408083203384529091528120548281101561032d576040516313be252b60e01b815260040160405180910390fd5b610337838261068c565b6001600160a01b0386165f908152600560209081526040808320338452909152902055610365858585610443565b506001949350505050565b6003546001600160a01b0316331461039b576040516330cd747160e01b815260040160405180910390fd5b8060025f8282546103ac919061069f565b90915550506001600160a01b0382165f90815260046020526040812080548392906103d890849061069f565b90915550506040518181526001600160a01b038316905f907fddf252ad1be2c89b69c2b068fc378daa952ba7f163c4a11628f55a4df523b3ef9060200160405180910390a35050565b600180546101fe90610640565b5f61043a338484610443565b50600192915050565b6001600160a01b0383165f9081526004602052604090205481111561047b57604051631e9acf1760e31b815260040160405180910390fd5b6001600160a01b0383165f90815260046020526040812080548392906104a290849061068c565b90915550506001600160a01b0382165f90815260046020526040812080548392906104ce90849061069f565b92505081905550816001600160a01b0316836001600160a01b03167fddf252ad1be2c89b69c2b068fc378daa952ba7f163c4a11628f55a4df523b3ef8360405161051a91815260200190565b60405180910390a3505050565b5f602080835283518060208501525f5b8181101561055357858101830151858201604001528201610537565b505f604082860101526040601f19601f8301168501019250505092915050565b80356001600160a01b0381168114610589575f80fd5b919050565b5f806040838503121561059f575f80fd5b6105a883610573565b946020939093013593505050565b5f805f606084860312156105c8575f80fd5b6105d184610573565b92506105df60208501610573565b9150604084013590509250925092565b5f602082840312156105ff575f80fd5b61060882610573565b9392505050565b5f8060408385031215610620575f80fd5b61062983610573565b915061063760208401610573565b90509250929050565b600181811c9082168061065457607f821691505b60208210810361067257634e487b7160e01b5f52602260045260245ffd5b50919050565b634e487b7160e01b5f52601160045260245ffd5b818103818111156102e3576102e3610678565b808201808211156102e3576102e361067856fea264697066735822122043a36b24815dcf4210ca665c993c46b4b99bf7fc912806ed550f4f78bed0d7d264736f6c63430008180033000000000000000000000000000000000000000000000000000000000000006000000000000000000000000000000000000000000000000000000000000000a00000000000000000000000000000000000000000000000000000000000000012000000000000000000000000000000000000000000000000000000000000000d4d6f636b2055534420436f696e0000000000000000000000000000000000000000000000000000000000000000000000000000000000000000000000000000056d55534443000000000000000000000000000000000000000000000000000000",
        "nonce": "0x1",
        "chainId": "0x7a69"
      },
      "additionalContracts": [],
      "isFixedGasLimit": false
    },
    {
      "hash": "0xd5cb715895ed09598564af72d669447b317123097fc37898ec2be1aebb20c68d",
      "transactionType": "CREATE",
      "contractName": "MockPriceOracle",
      "contractAddress": "0x9fe46736679d2d9a65f0992f2272de9f3c7fa6e0",
      "function": null,
      "arguments": null,
      "transaction": {
        "from": "0xf39fd6e51aad88f6f4ce6ab8827279cfffb92266",
        "to": null,
        "gas": "0x3e0a8",
        "value": "0x0",
        "input": "0x608060405234801561000f575f80fd5b505f80546001600160a01b0319163317905561022a8061002e5f395ff3fe608060405234801561000f575f80fd5b5060043610610049575f3560e01c8062e4768b1461004d5780631cf5b5951461006257806341976e09146100945780638da5cb5b146100a7575b5f80fd5b61006061005b3660046101ac565b6100d1565b005b6100816100703660046101d4565b60016020525f908152604090205481565b6040519081526020015b60405180910390f35b6100816100a23660046101d4565b610153565b5f546100b9906001600160a01b031681565b6040516001600160a01b03909116815260200161008b565b5f546001600160a01b031633146100fb576040516330cd747160e01b815260040160405180910390fd5b6001600160a01b0382165f8181526001602052604090819020839055517f0d86730737b142fc160892fa8a0f2db687a92a0e294d1ad70624cf5acef03b84906101479084815260200190565b60405180910390a25050565b6001600160a01b0381165f9081526001602052604081205480820361018b57604051632b5e1feb60e21b815260040160405180910390fd5b92915050565b80356001600160a01b03811681146101a7575f80fd5b919050565b5f80604083850312156101bd575f80fd5b6101c683610191565b946020939093013593505050565b5f602082840312156101e4575f80fd5b6101ed82610191565b939250505056fea2646970667358221220a9d6bd98553634dd736959baab1846c1423ab89ac956c6161d2d152110b2377e64736f6c63430008180033",
        "nonce": "0x2",
        "chainId": "0x7a69"
      },
      "additionalContracts": [],
      "isFixedGasLimit": false
    },
    {
      "hash": "0xa4bad6d5b86cc31f1e137846710144241e33eceed371f5c810b9b746814b24cd",
      "transactionType": "CALL",
      "contractName": "MockPriceOracle",
      "contractAddress": "0x9fe46736679d2d9a65f0992f2272de9f3c7fa6e0",
      "function": "setPrice(address,uint256)",
      "arguments": [
        "0x0000000000000000000000000000000000000000",
        "2000000000000000000000"
      ],
      "transaction": {
        "from": "0xf39fd6e51aad88f6f4ce6ab8827279cfffb92266",
        "to": "0x9fe46736679d2d9a65f0992f2272de9f3c7fa6e0",
        "gas": "0x10f42",
        "value": "0x0",
        "input": "0x00e4768b000000000000000000000000000000000000000000000000000000000000000000000000000000000000000000000000000000000000006c6b935b8bbd400000",
        "nonce": "0x3",
        "chainId": "0x7a69"
      },
      "additionalContracts": [],
      "isFixedGasLimit": false
    },
    {
      "hash": "0x2614132a1399c3a1406a0d914156b97e704bb076bae63010e99960b2ea9efa22",
      "transactionType": "CALL",
      "contractName": "MockPriceOracle",
      "contractAddress": "0x9fe46736679d2d9a65f0992f2272de9f3c7fa6e0",
      "function": "setPrice(address,uint256)",
      "arguments": [
        "0x5FbDB2315678afecb367f032d93F642f64180aa3",
        "60000000000000000000000"
      ],
      "transaction": {
        "from": "0xf39fd6e51aad88f6f4ce6ab8827279cfffb92266",
        "to": "0x9fe46736679d2d9a65f0992f2272de9f3c7fa6e0",
        "gas": "0x1018c",
        "value": "0x0",
        "input": "0x00e4768b0000000000000000000000005fbdb2315678afecb367f032d93f642f64180aa3000000000000000000000000000000000000000000000cb49b44ba602d800000",
        "nonce": "0x4",
        "chainId": "0x7a69"
      },
      "additionalContracts": [],
      "isFixedGasLimit": false
    },
    {
      "hash": "0x8459a0cc076f4afd04b3f3045d4723f49ad95e54481a8b20299c4b02c987b72a",
      "transactionType": "CALL",
      "contractName": "MockPriceOracle",
      "contractAddress": "0x9fe46736679d2d9a65f0992f2272de9f3c7fa6e0",
      "function": "setPrice(address,uint256)",
      "arguments": [
        "0xe7f1725E7734CE288F8367e1Bb143E90bb3F0512",
        "1000000000000000000"
      ],
      "transaction": {
        "from": "0xf39fd6e51aad88f6f4ce6ab8827279cfffb92266",
        "to": "0x9fe46736679d2d9a65f0992f2272de9f3c7fa6e0",
        "gas": "0x1016a",
        "value": "0x0",
        "input": "0x00e4768b000000000000000000000000e7f1725e7734ce288f8367e1bb143e90bb3f05120000000000000000000000000000000000000000000000000de0b6b3a7640000",
        "nonce": "0x5",
        "chainId": "0x7a69"
      },
      "additionalContracts": [],
      "isFixedGasLimit": false
    },
    {
      "hash": "0x42d6500ff1be97271fdd36529854c0448f39a5c49c3ccfcb7612d6b757753b80",
      "transactionType": "CREATE",
      "contractName": "LendingPool",
      "contractAddress": "0x0165878a594ca255338adfa4d48449f69242eb8f",
      "function": null,
      "arguments": [
        "0xe7f1725E7734CE288F8367e1Bb143E90bb3F0512",
        "0x9fE46736679d2D9a65F0992F2272dE9f3c7fa6e0"
      ],
      "transaction": {
        "from": "0xf39fd6e51aad88f6f4ce6ab8827279cfffb92266",
        "to": null,
        "gas": "0x1453e5",
        "value": "0x0",
        "input": "0x60e060405234801561000f575f80fd5b5060405161127938038061127983398101604081905261002e91610064565b6001600160a01b039182166080521660a0523360c052610095565b80516001600160a01b038116811461005f575f80fd5b919050565b5f8060408385031215610075575f80fd5b61007e83610049565b915061008c60208401610049565b90509250929050565b60805160a05160c0516111896100f05f395f8181610335015261044d01525f81816102b80152818161053e01528181610636015261091801525f8181610420015281816107a5015281816108e40152610a8d01526111895ff3fe608060405260043610610134575f3560e01c80637dc0d1d0116100a8578063c5ebeaec1161006d578063c5ebeaec14610376578063e7602b9d14610395578063ecd1dae6146103c8578063f2b9fdb8146103dd578063f3fef3a3146103f0578063f8d898981461040f575f80fd5b80637dc0d1d0146102a75780638322fff2146102f25780638327e67d146103055780638da5cb5b14610324578063b3a5a0a214610357575f80fd5b806329918899116100f957806329918899146101fa57806329f980571461021b578063371fd8e61461023a5780636a146024146102595780636ad9f9df1461027457806373c9da8614610293575f80fd5b80630c6d5a581461013f5780630ee21e541461016757806311005b07146101a5578063249d39e9146101d0578063295c2b86146101e5575f80fd5b3661013b57005b5f80fd5b34801561014a575f80fd5b506101546130d481565b6040519081526020015b60405180910390f35b348015610172575f80fd5b50610195610181366004611010565b60036020525f908152604090205460ff1681565b604051901515815260200161015e565b3480156101b0575f80fd5b506101546101bf366004611010565b60016020525f908152604090205481565b3480156101db575f80fd5b5061015461271081565b3480156101f0575f80fd5b50610154613a9881565b348015610205575f80fd5b50610219610214366004611010565b610442565b005b348015610226575f80fd5b50610154610235366004611010565b610512565b348015610245575f80fd5b50610219610254366004611029565b6106f2565b348015610264575f80fd5b50610154670de0b6b3a764000081565b34801561027f575f80fd5b5061015461028e366004611010565b61086a565b34801561029e575f80fd5b50600254610154565b3480156102b2575f80fd5b506102da7f000000000000000000000000000000000000000000000000000000000000000081565b6040516001600160a01b03909116815260200161015e565b3480156102fd575f80fd5b506102da5f81565b348015610310575f80fd5b5061015461031f366004611010565b6108cd565b34801561032f575f80fd5b506102da7f000000000000000000000000000000000000000000000000000000000000000081565b348015610362575f80fd5b506102da610371366004611029565b6109b3565b348015610381575f80fd5b50610219610390366004611029565b6109db565b3480156103a0575f80fd5b506101546103af366004611040565b5f60208181529281526040808220909352908152205481565b3480156103d3575f80fd5b506101546101f481565b6102196103eb366004611071565b610b58565b3480156103fb575f80fd5b5061021961040a366004611071565b610d7d565b34801561041a575f80fd5b506102da7f000000000000000000000000000000000000000000000000000000000000000081565b336001600160a01b037f0000000000000000000000000000000000000000000000000000000000000000161461048b576040516330cd747160e01b815260040160405180910390fd5b6001600160a01b0381165f9081526003602052604090205460ff1661050f576001600160a01b0381165f818152600360205260408120805460ff191660019081179091556002805491820181559091527f405787fa12a823e0f2b7631cc41b3ba8828b3321ca811111fa75cd3aa3bb5ace0180546001600160a01b03191690911790555b50565b6040516341976e0960e01b81525f60048201819052908190670de0b6b3a7640000906001600160a01b037f000000000000000000000000000000000000000000000000000000000000000016906341976e0990602401602060405180830381865afa158015610583573d5f803e3d5ffd5b505050506040513d601f19601f820116820180604052508101906105a79190611099565b6001600160a01b0385165f908152602081815260408083208380529091529020546105d291906110c4565b6105dc91906110db565b90505f5b6002548110156106eb575f600282815481106105fe576105fe6110fa565b5f918252602090912001546040516341976e0960e01b81526001600160a01b03918216600482018190529250670de0b6b3a7640000917f000000000000000000000000000000000000000000000000000000000000000016906341976e0990602401602060405180830381865afa15801561067b573d5f803e3d5ffd5b505050506040513d601f19601f8201168201806040525081019061069f9190611099565b6001600160a01b038088165f90815260208181526040808320938716835292905220546106cc91906110c4565b6106d691906110db565b6106e0908461110e565b9250506001016105e0565b5092915050565b600454600103610715576040516306fda65d60e31b815260040160405180910390fd5b60016004555f81900361073b576040516365e52d5160e11b815260040160405180910390fd5b335f9081526001602052604081205490818311610758578261075a565b815b90506107668183611121565b335f81815260016020526040908190209290925590516323b872dd60e01b81526004810191909152306024820152604481018290526001600160a01b037f000000000000000000000000000000000000000000000000000000000000000016906323b872dd906064016020604051808303815f875af11580156107eb573d5f803e3d5ffd5b505050506040513d601f19601f8201168201806040525081019061080f9190611134565b61082c576040516312171d8360e31b815260040160405180910390fd5b60405181815233907f0516911bcc3a0a7412a44601057c0a0a1ec628bde049a84284bc4288665344889060200160405180910390a250505f60045550565b5f80610875836108cd565b9050805f0361088757505f1992915050565b610893612710826110c4565b670de0b6b3a76400006130d46108a886610512565b6108b291906110c4565b6108bc91906110c4565b6108c691906110db565b9392505050565b6040516341976e0960e01b81526001600160a01b037f0000000000000000000000000000000000000000000000000000000000000000811660048301525f91670de0b6b3a7640000917f000000000000000000000000000000000000000000000000000000000000000016906341976e0990602401602060405180830381865afa15801561095d573d5f803e3d5ffd5b505050506040513d601f19601f820116820180604052508101906109819190611099565b6001600160a01b0384165f908152600160205260409020546109a391906110c4565b6109ad91906110db565b92915050565b600281815481106109c2575f80fd5b5f918252602090912001546001600160a01b0316905081565b6004546001036109fe576040516306fda65d60e31b815260040160405180910390fd5b60016004555f819003610a24576040516365e52d5160e11b815260040160405180910390fd5b335f9081526001602052604081208054839290610a4290849061110e565b90915550610a54905033613a98610fad565b610a7157604051633a23d82560e01b815260040160405180910390fd5b60405163a9059cbb60e01b8152336004820152602481018290527f00000000000000000000000000000000000000000000000000000000000000006001600160a01b03169063a9059cbb906044016020604051808303815f875af1158015610adb573d5f803e3d5ffd5b505050506040513d601f19601f82011682018060405250810190610aff9190611134565b610b1c576040516312171d8360e31b815260040160405180910390fd5b60405181815233907fac59582e5396aca512fa873a2047e7f4c80f8f55d4a06cb34a78a0187f62719f9060200160405180910390a2505f600455565b600454600103610b7b576040516306fda65d60e31b815260040160405180910390fd5b60016004556001600160a01b038216610c1657345f03610bae576040516365e52d5160e11b815260040160405180910390fd5b335f9081526020818152604080832083805290915281208054349290610bd590849061110e565b90915550506040513481525f9033907f523322d7afb07cee28d04498651096af062004e1f14315eff2e4a60290dfadda9060200160405180910390a3610d75565b6001600160a01b0382165f9081526003602052604090205460ff16610c4e5760405163350b944160e11b815260040160405180910390fd5b805f03610c6e576040516365e52d5160e11b815260040160405180910390fd5b335f908152602081815260408083206001600160a01b038616845290915281208054839290610c9e90849061110e565b90915550506040516323b872dd60e01b8152336004820152306024820152604481018290526001600160a01b038316906323b872dd906064016020604051808303815f875af1158015610cf3573d5f803e3d5ffd5b505050506040513d601f19601f82011682018060405250810190610d179190611134565b610d34576040516312171d8360e31b815260040160405180910390fd5b6040518181526001600160a01b0383169033907f523322d7afb07cee28d04498651096af062004e1f14315eff2e4a60290dfadda9060200160405180910390a35b50505f600455565b600454600103610da0576040516306fda65d60e31b815260040160405180910390fd5b60016004555f819003610dc6576040516365e52d5160e11b815260040160405180910390fd5b335f908152602081815260408083206001600160a01b038616845290915290205481811015610e0857604051633a23d82560e01b815260040160405180910390fd5b610e128282611121565b335f818152602081815260408083206001600160a01b0389168452909152902091909155610e4290613a98610fad565b610e5f57604051633a23d82560e01b815260040160405180910390fd5b6001600160a01b038316610ed9576040515f90339084908381818185875af1925050503d805f8114610eac576040519150601f19603f3d011682016040523d82523d5f602084013e610eb1565b606091505b5050905080610ed3576040516312171d8360e31b815260040160405180910390fd5b50610f64565b60405163a9059cbb60e01b8152336004820152602481018390526001600160a01b0384169063a9059cbb906044016020604051808303815f875af1158015610f23573d5f803e3d5ffd5b505050506040513d601f19601f82011682018060405250810190610f479190611134565b610f64576040516312171d8360e31b815260040160405180910390fd5b6040518281526001600160a01b0384169033907fd1c19fbcd4551a5edfb66d43d2e337c04837afda3482b42bdf569a8fccdae5fb9060200160405180910390a350505f60045550565b5f80610fb8846108cd565b9050805f03610fcb5760019150506109ad565b610fd583826110c4565b612710610fe186610512565b610feb91906110c4565b1015949350505050565b80356001600160a01b038116811461100b575f80fd5b919050565b5f60208284031215611020575f80fd5b6108c682610ff5565b5f60208284031215611039575f80fd5b5035919050565b5f8060408385031215611051575f80fd5b61105a83610ff5565b915061106860208401610ff5565b90509250929050565b5f8060408385031215611082575f80fd5b61108b83610ff5565b946020939093013593505050565b5f602082840312156110a9575f80fd5b5051919050565b634e487b7160e01b5f52601160045260245ffd5b80820281158282048414176109ad576109ad6110b0565b5f826110f557634e487b7160e01b5f52601260045260245ffd5b500490565b634e487b7160e01b5f52603260045260245ffd5b808201808211156109ad576109ad6110b0565b818103818111156109ad576109ad6110b0565b5f60208284031215611144575f80fd5b815180151581146108c6575f80fdfea26469706673582212208e625b4968b334523773996d5a89c459650ffd4e58ff4b1c579da4b7218bfb3d64736f6c63430008180033000000000000000000000000e7f1725e7734ce288f8367e1bb143e90bb3f05120000000000000000000000009fe46736679d2d9a65f0992f2272de9f3c7fa6e0",
        "nonce": "0x6",
        "chainId": "0x7a69"
      },
      "additionalContracts": [],
      "isFixedGasLimit": false
    },
    {
      "hash": "0xf88981fb765eb376842a30e33106d47ea75d39180fc96723bd2468fe7efbe09a",
      "transactionType": "CALL",
      "contractName": "LendingPool",
      "contractAddress": "0x0165878a594ca255338adfa4d48449f69242eb8f",
      "function": "addCollateralToken(address)",
      "arguments": [
        "0x5FbDB2315678afecb367f032d93F642f64180aa3"
      ],
      "transaction": {
        "from": "0xf39fd6e51aad88f6f4ce6ab8827279cfffb92266",
        "to": "0x0165878a594ca255338adfa4d48449f69242eb8f",
        "gas": "0x1dd77",
        "value": "0x0",
        "input": "0x299188990000000000000000000000005fbdb2315678afecb367f032d93f642f64180aa3",
        "nonce": "0x7",
        "chainId": "0x7a69"
      },
      "additionalContracts": [],
      "isFixedGasLimit": false
    },
    {
      "hash": "0xa84da84bdf2b6a48c10817f83a81905a22d7b7cb795cca0c1173ff5f033240f8",
      "transactionType": "CALL",
      "contractName": "MockERC20",
      "contractAddress": "0xe7f1725e7734ce288f8367e1bb143e90bb3f0512",
      "function": "mint(address,uint256)",
      "arguments": [
        "0x0165878A594ca255338adfa4d48449f69242Eb8F",
        "1000000000000000000000000"
      ],
      "transaction": {
        "from": "0xf39fd6e51aad88f6f4ce6ab8827279cfffb92266",
        "to": "0xe7f1725e7734ce288f8367e1bb143e90bb3f0512",
        "gas": "0x19260",
        "value": "0x0",
        "input": "0x40c10f190000000000000000000000000165878a594ca255338adfa4d48449f69242eb8f00000000000000000000000000000000000000000000d3c21bcecceda1000000",
        "nonce": "0x8",
        "chainId": "0x7a69"
      },
      "additionalContracts": [],
      "isFixedGasLimit": false
    },
    {
      "hash": "0x3f2eef4d41862fc4d0709fc20942372707ecf116b4433c5317b2fddf004c21e6",
      "transactionType": "CALL",
      "contractName": "MockERC20",
      "contractAddress": "0x5fbdb2315678afecb367f032d93f642f64180aa3",
      "function": "mint(address,uint256)",
      "arguments": [
        "0xf39Fd6e51aad88F6F4ce6aB8827279cffFb92266",
        "10000000000000000000"
      ],
      "transaction": {
        "from": "0xf39fd6e51aad88f6f4ce6ab8827279cfffb92266",
        "to": "0x5fbdb2315678afecb367f032d93f642f64180aa3",
        "gas": "0x17bf4",
        "value": "0x0",
        "input": "0x40c10f19000000000000000000000000f39fd6e51aad88f6f4ce6ab8827279cfffb922660000000000000000000000000000000000000000000000008ac7230489e80000",
        "nonce": "0x9",
        "chainId": "0x7a69"
      },
      "additionalContracts": [],
      "isFixedGasLimit": false
    },
    {
      "hash": "0x14106f4c9537db427467af1bca0be8ea10d41e2c79cad9ee26ca2e88788f3ac5",
      "transactionType": "CALL",
      "contractName": "MockERC20",
      "contractAddress": "0x5fbdb2315678afecb367f032d93f642f64180aa3",
      "function": "mint(address,uint256)",
      "arguments": [
        "0x70997970C51812dc3A010C7d01b50e0d17dc79C8",
        "10000000000000000000"
      ],
      "transaction": {
        "from": "0xf39fd6e51aad88f6f4ce6ab8827279cfffb92266",
        "to": "0x5fbdb2315678afecb367f032d93f642f64180aa3",
        "gas": "0x1309d",
        "value": "0x0",
        "input": "0x40c10f1900000000000000000000000070997970c51812dc3a010c7d01b50e0d17dc79c80000000000000000000000000000000000000000000000008ac7230489e80000",
        "nonce": "0xa",
        "chainId": "0x7a69"
      },
      "additionalContracts": [],
      "isFixedGasLimit": false
    },
    {
      "hash": "0x4aa6699b6e1cf9faee75ad394a736f07f7ac75eb4e066736a45efd17a0614007",
      "transactionType": "CALL",
      "contractName": "MockERC20",
      "contractAddress": "0x5fbdb2315678afecb367f032d93f642f64180aa3",
      "function": "mint(address,uint256)",
      "arguments": [
        "0x3C44CdDdB6a900fa2b585dd299e03d12FA4293BC",
        "10000000000000000000"
      ],
      "transaction": {
        "from": "0xf39fd6e51aad88f6f4ce6ab8827279cfffb92266",
        "to": "0x5fbdb2315678afecb367f032d93f642f64180aa3",
        "gas": "0x11fa0",
        "value": "0x0",
        "input": "0x40c10f190000000000000000000000003c44cdddb6a900fa2b585dd299e03d12fa4293bc0000000000000000000000000000000000000000000000008ac7230489e80000",
        "nonce": "0xb",
        "chainId": "0x7a69"
      },
      "additionalContracts": [],
      "isFixedGasLimit": false
    },
    {
      "hash": "0x6d6eb53c2dd49e788d26f0f1913db14cd349af98740f647db94940666767bdc9",
      "transactionType": "CALL",
      "contractName": "MockERC20",
      "contractAddress": "0x5fbdb2315678afecb367f032d93f642f64180aa3",
      "function": "mint(address,uint256)",
      "arguments": [
        "0x90F79bf6EB2c4f870365E785982E1f101E93b906",
        "10000000000000000000"
      ],
      "transaction": {
        "from": "0xf39fd6e51aad88f6f4ce6ab8827279cfffb92266",
        "to": "0x5fbdb2315678afecb367f032d93f642f64180aa3",
        "gas": "0x1309d",
        "value": "0x0",
        "input": "0x40c10f1900000000000000000000000090f79bf6eb2c4f870365e785982e1f101e93b9060000000000000000000000000000000000000000000000008ac7230489e80000",
        "nonce": "0xc",
        "chainId": "0x7a69"
      },
      "additionalContracts": [],
      "isFixedGasLimit": false
    },
    {
      "hash": "0x44c3242d8159f387a40957fc3938732aa33d9c2a03e4d8a025820639097d2856",
      "transactionType": "CALL",
      "contractName": "MockERC20",
      "contractAddress": "0x5fbdb2315678afecb367f032d93f642f64180aa3",
      "function": "mint(address,uint256)",
      "arguments": [
        "0x15d34AAf54267DB7D7c367839AAf71A00a2C6A65",
        "10000000000000000000"
      ],
      "transaction": {
        "from": "0xf39fd6e51aad88f6f4ce6ab8827279cfffb92266",
        "to": "0x5fbdb2315678afecb367f032d93f642f64180aa3",
        "gas": "0x1309d",
        "value": "0x0",
        "input": "0x40c10f1900000000000000000000000015d34aaf54267db7d7c367839aaf71a00a2c6a650000000000000000000000000000000000000000000000008ac7230489e80000",
        "nonce": "0xd",
        "chainId": "0x7a69"
      },
      "additionalContracts": [],
      "isFixedGasLimit": false
    },
    {
      "hash": "0x9c1628864f7371189059a0fa9e1acf4b239c8b6581eda9711229a9891fbc0e10",
      "transactionType": "CALL",
      "contractName": "MockERC20",
      "contractAddress": "0x5fbdb2315678afecb367f032d93f642f64180aa3",
      "function": "mint(address,uint256)",
      "arguments": [
        "0x9965507D1a55bcC2695C58ba16FB37d819B0A4dc",
        "10000000000000000000"
      ],
      "transaction": {
        "from": "0xf39fd6e51aad88f6f4ce6ab8827279cfffb92266",
        "to": "0x5fbdb2315678afecb367f032d93f642f64180aa3",
        "gas": "0x1309d",
        "value": "0x0",
        "input": "0x40c10f190000000000000000000000009965507d1a55bcc2695c58ba16fb37d819b0a4dc0000000000000000000000000000000000000000000000008ac7230489e80000",
        "nonce": "0xe",
        "chainId": "0x7a69"
      },
      "additionalContracts": [],
      "isFixedGasLimit": false
    },
    {
      "hash": "0x52cfc5b04a3637db27985715db62a90bca59ce29d932e15c9c86c9acb1faabf2",
      "transactionType": "CALL",
      "contractName": "MockERC20",
      "contractAddress": "0x5fbdb2315678afecb367f032d93f642f64180aa3",
      "function": "mint(address,uint256)",
      "arguments": [
        "0x976EA74026E726554dB657fA54763abd0C3a0aa9",
        "10000000000000000000"
      ],
      "transaction": {
        "from": "0xf39fd6e51aad88f6f4ce6ab8827279cfffb92266",
        "to": "0x5fbdb2315678afecb367f032d93f642f64180aa3",
        "gas": "0x1309d",
        "value": "0x0",
        "input": "0x40c10f19000000000000000000000000976ea74026e726554db657fa54763abd0c3a0aa90000000000000000000000000000000000000000000000008ac7230489e80000",
        "nonce": "0xf",
        "chainId": "0x7a69"
      },
      "additionalContracts": [],
      "isFixedGasLimit": false
    },
    {
      "hash": "0x4b4bff0b72a2c5c7b315d79f862ae8d1bc9c365996f4f5581f0dc16ad73f1f3a",
      "transactionType": "CALL",
      "contractName": "MockERC20",
      "contractAddress": "0x5fbdb2315678afecb367f032d93f642f64180aa3",
      "function": "mint(address,uint256)",
      "arguments": [
        "0x14dC79964da2C08b23698B3D3cc7Ca32193d9955",
        "10000000000000000000"
      ],
      "transaction": {
        "from": "0xf39fd6e51aad88f6f4ce6ab8827279cfffb92266",
        "to": "0x5fbdb2315678afecb367f032d93f642f64180aa3",
        "gas": "0x1309d",
        "value": "0x0",
        "input": "0x40c10f1900000000000000000000000014dc79964da2c08b23698b3d3cc7ca32193d99550000000000000000000000000000000000000000000000008ac7230489e80000",
        "nonce": "0x10",
        "chainId": "0x7a69"
      },
      "additionalContracts": [],
      "isFixedGasLimit": false
    },
    {
      "hash": "0x055f24320403481d9b4dcec914ebf731007af4eabac25534a3fbc4094e74a94d",
      "transactionType": "CALL",
      "contractName": "MockERC20",
      "contractAddress": "0x5fbdb2315678afecb367f032d93f642f64180aa3",
      "function": "mint(address,uint256)",
      "arguments": [
        "0x23618e81E3f5cdF7f54C3d65f7FBc0aBf5B21E8f",
        "10000000000000000000"
      ],
      "transaction": {
        "from": "0xf39fd6e51aad88f6f4ce6ab8827279cfffb92266",
        "to": "0x5fbdb2315678afecb367f032d93f642f64180aa3",
        "gas": "0x1309d",
        "value": "0x0",
        "input": "0x40c10f1900000000000000000000000023618e81e3f5cdf7f54c3d65f7fbc0abf5b21e8f0000000000000000000000000000000000000000000000008ac7230489e80000",
        "nonce": "0x11",
        "chainId": "0x7a69"
      },
      "additionalContracts": [],
      "isFixedGasLimit": false
    },
    {
      "hash": "0x9e2c7223300e6b96e77cc6c7bdc2fd62d2f1fad03f593ac7d095765fd5b0ee17",
      "transactionType": "CALL",
      "contractName": "MockERC20",
      "contractAddress": "0x5fbdb2315678afecb367f032d93f642f64180aa3",
      "function": "mint(address,uint256)",
      "arguments": [
        "0xa0Ee7A142d267C1f36714E4a8F75612F20a79720",
        "10000000000000000000"
      ],
      "transaction": {
        "from": "0xf39fd6e51aad88f6f4ce6ab8827279cfffb92266",
        "to": "0x5fbdb2315678afecb367f032d93f642f64180aa3",
        "gas": "0x1309d",
        "value": "0x0",
        "input": "0x40c10f19000000000000000000000000a0ee7a142d267c1f36714e4a8f75612f20a797200000000000000000000000000000000000000000000000008ac7230489e80000",
        "nonce": "0x12",
        "chainId": "0x7a69"
      },
      "additionalContracts": [],
      "isFixedGasLimit": false
    }
  ],
  "receipts": [
    {
      "type": "0x2",
      "status": "0x1",
      "cumulativeGasUsed": "0x7e127",
      "logs": [],
      "logsBloom": "0x00000000000000000000000000000000000000000000000000000000000000000000000000000000000000000000000000000000000000000000000000000000000000000000000000000000000000000000000000000000000000000000000000000000000000000000000000000000000000000000000000000000000000000000000000000000000000000000000000000000000000000000000000000000000000000000000000000000000000000000000000000000000000000000000000000000000000000000000000000000000000000000000000000000000000000000000000000000000000000000000000000000000000000000000000000000",
      "transactionHash": "0x9cd6a856ecf0f9e1e82a48a8c3829091cec7b17762d940ae5a48eb3e4b0ed414",
      "transactionIndex": "0x0",
      "blockHash": "0xa32c3b13c58fb7729215f4211d58c0208001904a20fcfb641bf3e582f350a2f1",
      "blockNumber": "0x1",
      "gasUsed": "0x7e127",
      "effectiveGasPrice": "0x3b9aca01",
      "blobGasPrice": "0x1",
      "from": "0xf39fd6e51aad88f6f4ce6ab8827279cfffb92266",
      "to": null,
      "contractAddress": "0x5fbdb2315678afecb367f032d93f642f64180aa3"
    },
    {
      "type": "0x2",
      "status": "0x1",
      "cumulativeGasUsed": "0x7e0d3",
      "logs": [],
      "logsBloom": "0x00000000000000000000000000000000000000000000000000000000000000000000000000000000000000000000000000000000000000000000000000000000000000000000000000000000000000000000000000000000000000000000000000000000000000000000000000000000000000000000000000000000000000000000000000000000000000000000000000000000000000000000000000000000000000000000000000000000000000000000000000000000000000000000000000000000000000000000000000000000000000000000000000000000000000000000000000000000000000000000000000000000000000000000000000000000",
      "transactionHash": "0x42d6500ff1be97271fdd36529854c0448f39a5c49c3ccfcb7612d6b757753b80",
      "transactionIndex": "0x0",
      "blockHash": "0x272a9327b6a6e67797b63a3233f7461fe3ba22e12f100a1459c73a2ae7ca70a2",
      "blockNumber": "0x2",
      "gasUsed": "0x7e0d3",
      "effectiveGasPrice": "0x34691a5c",
      "blobGasPrice": "0x1",
      "from": "0xf39fd6e51aad88f6f4ce6ab8827279cfffb92266",
      "to": null,
      "contractAddress": "0xe7f1725e7734ce288f8367e1bb143e90bb3f0512"
    },
    {
      "type": "0x2",
      "status": "0x1",
      "cumulativeGasUsed": "0x2fb95",
      "logs": [],
      "logsBloom": "0x00000000000000000000000000000000000000000000000000000000000000000000000000000000000000000000000000000000000000000000000000000000000000000000000000000000000000000000000000000000000000000000000000000000000000000000000000000000000000000000000000000000000000000000000000000000000000000000000000000000000000000000000000000000000000000000000000000000000000000000000000000000000000000000000000000000000000000000000000000000000000000000000000000000000000000000000000000000000000000000000000000000000000000000000000000000",
      "transactionHash": "0x52cfc5b04a3637db27985715db62a90bca59ce29d932e15c9c86c9acb1faabf2",
      "transactionIndex": "0x0",
      "blockHash": "0xdfae5b99ec7830ca237e0c866893bc53117872102effe5facee1572ae787cbbb",
      "blockNumber": "0x3",
      "gasUsed": "0x2fb95",
      "effectiveGasPrice": "0x2e15b167",
      "blobGasPrice": "0x1",
      "from": "0xf39fd6e51aad88f6f4ce6ab8827279cfffb92266",
      "to": null,
      "contractAddress": "0x9fe46736679d2d9a65f0992f2272de9f3c7fa6e0"
    },
    {
      "type": "0x2",
      "status": "0x1",
      "cumulativeGasUsed": "0x3b50f",
      "logs": [
        {
          "address": "0x9fe46736679d2d9a65f0992f2272de9f3c7fa6e0",
          "topics": [
            "0x0d86730737b142fc160892fa8a0f2db687a92a0e294d1ad70624cf5acef03b84",
            "0x0000000000000000000000000000000000000000000000000000000000000000"
          ],
          "data": "0x00000000000000000000000000000000000000000000006c6b935b8bbd400000",
          "blockHash": "0xdfae5b99ec7830ca237e0c866893bc53117872102effe5facee1572ae787cbbb",
          "blockNumber": "0x3",
          "blockTimestamp": "0x6a08e8b6",
          "transactionHash": "0x8459a0cc076f4afd04b3f3045d4723f49ad95e54481a8b20299c4b02c987b72a",
          "transactionIndex": "0x1",
          "logIndex": "0x0",
          "removed": false
        }
      ],
      "logsBloom": "0x00000000000000000000000000000000000000000000000000000000000000000000000000000000000000000000000000200000000040200000000000000000000000000000000000000000000000000000000000000000000000000000000000000000021000000000000000000800000000000000000000000000000000000000000000000000000000000000000000000000000000000000000000000000000000000000000000000000000000000000000000000000000000000000000000000000000000000000000000000000000000000000000000000000000020000000001000000000000000000000000000000000000000400000000000000000",
      "transactionHash": "0x8459a0cc076f4afd04b3f3045d4723f49ad95e54481a8b20299c4b02c987b72a",
      "transactionIndex": "0x1",
      "blockHash": "0xdfae5b99ec7830ca237e0c866893bc53117872102effe5facee1572ae787cbbb",
      "blockNumber": "0x3",
      "gasUsed": "0xb97a",
      "effectiveGasPrice": "0x2e15b167",
      "blobGasPrice": "0x1",
      "from": "0xf39fd6e51aad88f6f4ce6ab8827279cfffb92266",
      "to": "0x9fe46736679d2d9a65f0992f2272de9f3c7fa6e0",
      "contractAddress": null
    },
    {
      "type": "0x2",
      "status": "0x1",
      "cumulativeGasUsed": "0x46f85",
      "logs": [
        {
          "address": "0x9fe46736679d2d9a65f0992f2272de9f3c7fa6e0",
          "topics": [
            "0x0d86730737b142fc160892fa8a0f2db687a92a0e294d1ad70624cf5acef03b84",
            "0x0000000000000000000000005fbdb2315678afecb367f032d93f642f64180aa3"
          ],
          "data": "0x000000000000000000000000000000000000000000000cb49b44ba602d800000",
          "blockHash": "0xdfae5b99ec7830ca237e0c866893bc53117872102effe5facee1572ae787cbbb",
          "blockNumber": "0x3",
          "blockTimestamp": "0x6a08e8b6",
          "transactionHash": "0x14106f4c9537db427467af1bca0be8ea10d41e2c79cad9ee26ca2e88788f3ac5",
          "transactionIndex": "0x2",
          "logIndex": "0x1",
          "removed": false
        }
      ],
      "logsBloom": "0x00000000000000000000000000000000000000000000000000000000000000000000000000000000000000000000000000200000000040200000000000000000000000000000000000000000000000000000000000000000000000000000000000000000001000000000000000800000000004000000000000000000000000000000000000000000000000000000000000000000000000000000000000000000000000000000000000000000000000000000000000000000000000000000000000000000000000000000000000000000000000000008000000000000000000000000001000000000000000000000000000000000000000400000000000000000",
      "transactionHash": "0x14106f4c9537db427467af1bca0be8ea10d41e2c79cad9ee26ca2e88788f3ac5",
      "transactionIndex": "0x2",
      "blockHash": "0xdfae5b99ec7830ca237e0c866893bc53117872102effe5facee1572ae787cbbb",
      "blockNumber": "0x3",
      "gasUsed": "0xba76",
      "effectiveGasPrice": "0x2e15b167",
      "blobGasPrice": "0x1",
      "from": "0xf39fd6e51aad88f6f4ce6ab8827279cfffb92266",
      "to": "0x9fe46736679d2d9a65f0992f2272de9f3c7fa6e0",
      "contractAddress": null
    },
    {
      "type": "0x2",
      "status": "0x1",
      "cumulativeGasUsed": "0x529e3",
      "logs": [
        {
          "address": "0x9fe46736679d2d9a65f0992f2272de9f3c7fa6e0",
          "topics": [
            "0x0d86730737b142fc160892fa8a0f2db687a92a0e294d1ad70624cf5acef03b84",
            "0x000000000000000000000000e7f1725e7734ce288f8367e1bb143e90bb3f0512"
          ],
          "data": "0x0000000000000000000000000000000000000000000000000de0b6b3a7640000",
          "blockHash": "0xdfae5b99ec7830ca237e0c866893bc53117872102effe5facee1572ae787cbbb",
          "blockNumber": "0x3",
          "blockTimestamp": "0x6a08e8b6",
          "transactionHash": "0x3f2eef4d41862fc4d0709fc20942372707ecf116b4433c5317b2fddf004c21e6",
          "transactionIndex": "0x3",
          "logIndex": "0x2",
          "removed": false
        }
      ],
      "logsBloom": "0x00000000000000000400000000000000000000000000000000000000000000000000000000000000000000000000000000200000000040200000000000000000000000000000000000000000000000000000000000000000000000000000000000000000001000000000000000000000000000000000000000000004000000000000000000000000000000000000000000000000000000000000000000000000000000000000000000000002000000000000000000000000000000000000000000000000000000000000000000000000000000000000000000000000000000000000001000000000000000000000000000000000000000400000000000000000",
      "transactionHash": "0x3f2eef4d41862fc4d0709fc20942372707ecf116b4433c5317b2fddf004c21e6",
      "transactionIndex": "0x3",
      "blockHash": "0xdfae5b99ec7830ca237e0c866893bc53117872102effe5facee1572ae787cbbb",
      "blockNumber": "0x3",
      "gasUsed": "0xba5e",
      "effectiveGasPrice": "0x2e15b167",
      "blobGasPrice": "0x1",
      "from": "0xf39fd6e51aad88f6f4ce6ab8827279cfffb92266",
      "to": "0x9fe46736679d2d9a65f0992f2272de9f3c7fa6e0",
      "contractAddress": null
    },
    {
      "type": "0x2",
      "status": "0x1",
      "cumulativeGasUsed": "0x14cce2",
      "logs": [],
      "logsBloom": "0x00000000000000000000000000000000000000000000000000000000000000000000000000000000000000000000000000000000000000000000000000000000000000000000000000000000000000000000000000000000000000000000000000000000000000000000000000000000000000000000000000000000000000000000000000000000000000000000000000000000000000000000000000000000000000000000000000000000000000000000000000000000000000000000000000000000000000000000000000000000000000000000000000000000000000000000000000000000000000000000000000000000000000000000000000000000",
      "transactionHash": "0x630b551fe52f0f412cde37703fdedcd3fb666ab394467ce02772ac89bf08e9f3",
      "transactionIndex": "0x4",
      "blockHash": "0xdfae5b99ec7830ca237e0c866893bc53117872102effe5facee1572ae787cbbb",
      "blockNumber": "0x3",
      "gasUsed": "0xfa2ff",
      "effectiveGasPrice": "0x2e15b167",
      "blobGasPrice": "0x1",
      "from": "0xf39fd6e51aad88f6f4ce6ab8827279cfffb92266",
      "to": null,
      "contractAddress": "0x0165878a594ca255338adfa4d48449f69242eb8f"
    },
    {
      "type": "0x2",
      "status": "0x1",
      "cumulativeGasUsed": "0x162690",
      "logs": [],
      "logsBloom": "0x00000000000000000000000000000000000000000000000000000000000000000000000000000000000000000000000000000000000000000000000000000000000000000000000000000000000000000000000000000000000000000000000000000000000000000000000000000000000000000000000000000000000000000000000000000000000000000000000000000000000000000000000000000000000000000000000000000000000000000000000000000000000000000000000000000000000000000000000000000000000000000000000000000000000000000000000000000000000000000000000000000000000000000000000000000000",
      "transactionHash": "0xf88981fb765eb376842a30e33106d47ea75d39180fc96723bd2468fe7efbe09a",
      "transactionIndex": "0x5",
      "blockHash": "0xdfae5b99ec7830ca237e0c866893bc53117872102effe5facee1572ae787cbbb",
      "blockNumber": "0x3",
      "gasUsed": "0x159ae",
      "effectiveGasPrice": "0x2e15b167",
      "blobGasPrice": "0x1",
      "from": "0xf39fd6e51aad88f6f4ce6ab8827279cfffb92266",
      "to": "0x0165878a594ca255338adfa4d48449f69242eb8f",
      "contractAddress": null
    },
    {
      "type": "0x2",
      "status": "0x1",
      "cumulativeGasUsed": "0x1739b1",
      "logs": [
        {
          "address": "0xe7f1725e7734ce288f8367e1bb143e90bb3f0512",
          "topics": [
            "0xddf252ad1be2c89b69c2b068fc378daa952ba7f163c4a11628f55a4df523b3ef",
            "0x0000000000000000000000000000000000000000000000000000000000000000",
            "0x0000000000000000000000000165878a594ca255338adfa4d48449f69242eb8f"
          ],
          "data": "0x00000000000000000000000000000000000000000000d3c21bcecceda1000000",
          "blockHash": "0xdfae5b99ec7830ca237e0c866893bc53117872102effe5facee1572ae787cbbb",
          "blockNumber": "0x3",
          "blockTimestamp": "0x6a08e8b6",
          "transactionHash": "0xd5cb715895ed09598564af72d669447b317123097fc37898ec2be1aebb20c68d",
          "transactionIndex": "0x6",
          "logIndex": "0x3",
          "removed": false
        }
      ],
      "logsBloom": "0x00000000000000000000000000000000000000000000000040000000000000000000000000000000000000000000000010000000000000000400000000000000000000000000000000000008000000000000000000000000000000000000000000000000020000000000000000000800000000000000000000000010000000000000000000000000000000000000000000000000000000000000000000000000000000000000000000000000000000000000000000000100000000000000000000000002000000000000000000001000000000000000000000000000000020000000000000000000000000000000000000000000000000800000000000000000",
      "transactionHash": "0xd5cb715895ed09598564af72d669447b317123097fc37898ec2be1aebb20c68d",
      "transactionIndex": "0x6",
      "blockHash": "0xdfae5b99ec7830ca237e0c866893bc53117872102effe5facee1572ae787cbbb",
      "blockNumber": "0x3",
      "gasUsed": "0x11321",
      "effectiveGasPrice": "0x2e15b167",
      "blobGasPrice": "0x1",
      "from": "0xf39fd6e51aad88f6f4ce6ab8827279cfffb92266",
      "to": "0xe7f1725e7734ce288f8367e1bb143e90bb3f0512",
      "contractAddress": null
    },
    {
      "type": "0x2",
      "status": "0x1",
      "cumulativeGasUsed": "0x184cc6",
      "logs": [
        {
          "address": "0x5fbdb2315678afecb367f032d93f642f64180aa3",
          "topics": [
            "0xddf252ad1be2c89b69c2b068fc378daa952ba7f163c4a11628f55a4df523b3ef",
            "0x0000000000000000000000000000000000000000000000000000000000000000",
            "0x000000000000000000000000f39fd6e51aad88f6f4ce6ab8827279cfffb92266"
          ],
          "data": "0x0000000000000000000000000000000000000000000000008ac7230489e80000",
          "blockHash": "0xdfae5b99ec7830ca237e0c866893bc53117872102effe5facee1572ae787cbbb",
          "blockNumber": "0x3",
          "blockTimestamp": "0x6a08e8b6",
          "transactionHash": "0xa4bad6d5b86cc31f1e137846710144241e33eceed371f5c810b9b746814b24cd",
          "transactionIndex": "0x7",
          "logIndex": "0x4",
          "removed": false
        }
      ],
      "logsBloom": "0x00000000000000000000000000000000000000000000000000000000000000000000000000000000000000000000000000000000000000000000000000000000000000000000000000000008000000000000000000000000000000000000000000000040020000000000000100000800000000000000000000000010000000000000000000000000000000000000000000000000000000000000000200000000000000000000000000000000000000000000000000000000000000000000000000000042000000200000000000000000000000002000000000000000000020000000000000000000000000000000000000000000000000000000000000000000",
      "transactionHash": "0xa4bad6d5b86cc31f1e137846710144241e33eceed371f5c810b9b746814b24cd",
      "transactionIndex": "0x7",
      "blockHash": "0xdfae5b99ec7830ca237e0c866893bc53117872102effe5facee1572ae787cbbb",
      "blockNumber": "0x3",
      "gasUsed": "0x11315",
      "effectiveGasPrice": "0x2e15b167",
      "blobGasPrice": "0x1",
      "from": "0xf39fd6e51aad88f6f4ce6ab8827279cfffb92266",
      "to": "0x5fbdb2315678afecb367f032d93f642f64180aa3",
      "contractAddress": null
    },
    {
      "type": "0x2",
      "status": "0x1",
      "cumulativeGasUsed": "0x191d0f",
      "logs": [
        {
          "address": "0x5fbdb2315678afecb367f032d93f642f64180aa3",
          "topics": [
            "0xddf252ad1be2c89b69c2b068fc378daa952ba7f163c4a11628f55a4df523b3ef",
            "0x0000000000000000000000000000000000000000000000000000000000000000",
            "0x00000000000000000000000070997970c51812dc3a010c7d01b50e0d17dc79c8"
          ],
          "data": "0x0000000000000000000000000000000000000000000000008ac7230489e80000",
          "blockHash": "0xdfae5b99ec7830ca237e0c866893bc53117872102effe5facee1572ae787cbbb",
          "blockNumber": "0x3",
          "blockTimestamp": "0x6a08e8b6",
          "transactionHash": "0xa84da84bdf2b6a48c10817f83a81905a22d7b7cb795cca0c1173ff5f033240f8",
          "transactionIndex": "0x8",
          "logIndex": "0x5",
          "removed": false
        }
      ],
      "logsBloom": "0x00000000000000000002000000000000000000000000000000000000000000000000000000000000000000000000000000000000000000000000000000000000000000000000000000000008000000000000000000000000000000000000000000000840020000000000000000000800000000000000000000000010000000000000000000000000000000000000000000000000000000000000000200000000000000000000000000000000000000000000000000000000000000000000000000000042000000000000000000000000000000000000000000000000000020000000000000000000000000000000000001000000000000000000000000000000",
      "transactionHash": "0xa84da84bdf2b6a48c10817f83a81905a22d7b7cb795cca0c1173ff5f033240f8",
      "transactionIndex": "0x8",
      "blockHash": "0xdfae5b99ec7830ca237e0c866893bc53117872102effe5facee1572ae787cbbb",
      "blockNumber": "0x3",
      "gasUsed": "0xd049",
      "effectiveGasPrice": "0x2e15b167",
      "blobGasPrice": "0x1",
      "from": "0xf39fd6e51aad88f6f4ce6ab8827279cfffb92266",
      "to": "0x5fbdb2315678afecb367f032d93f642f64180aa3",
      "contractAddress": null
    },
    {
      "type": "0x2",
      "status": "0x1",
      "cumulativeGasUsed": "0xd03d",
      "logs": [
        {
          "address": "0x5fbdb2315678afecb367f032d93f642f64180aa3",
          "topics": [
            "0xddf252ad1be2c89b69c2b068fc378daa952ba7f163c4a11628f55a4df523b3ef",
            "0x0000000000000000000000000000000000000000000000000000000000000000",
            "0x0000000000000000000000003c44cdddb6a900fa2b585dd299e03d12fa4293bc"
          ],
          "data": "0x0000000000000000000000000000000000000000000000008ac7230489e80000",
          "blockHash": "0x0ef3f78c30e5c510a982c664bc3b1e94e71b78a71d726e4ea5be50b16428fbb4",
          "blockNumber": "0x4",
          "blockTimestamp": "0x6a08e8b6",
          "transactionHash": "0x055f24320403481d9b4dcec914ebf731007af4eabac25534a3fbc4094e74a94d",
          "transactionIndex": "0x0",
          "logIndex": "0x0",
          "removed": false
        }
      ],
      "logsBloom": "0x00000000000000000000000000000000000000000000000000000000000000000000000000000000000000000000000000000000000000000000000000100000000000000000000000000008000000000000000000000000000000000000000000000040020000000000000000000800000800000000000000000010000000000000000000000000000000000000000000000000000000000000000200000000000000000000200000000000000000000000000000000000000000000000000000000042000000000000000000000000000000000000000000000000000020000000000000000000000000000000000000000000000000000000000000000000",
      "transactionHash": "0x055f24320403481d9b4dcec914ebf731007af4eabac25534a3fbc4094e74a94d",
      "transactionIndex": "0x0",
      "blockHash": "0x0ef3f78c30e5c510a982c664bc3b1e94e71b78a71d726e4ea5be50b16428fbb4",
      "blockNumber": "0x4",
      "gasUsed": "0xd03d",
      "effectiveGasPrice": "0x28f4ca62",
      "blobGasPrice": "0x1",
      "from": "0xf39fd6e51aad88f6f4ce6ab8827279cfffb92266",
      "to": "0x5fbdb2315678afecb367f032d93f642f64180aa3",
      "contractAddress": null
    },
    {
      "type": "0x2",
      "status": "0x1",
      "cumulativeGasUsed": "0x1a086",
      "logs": [
        {
          "address": "0x5fbdb2315678afecb367f032d93f642f64180aa3",
          "topics": [
            "0xddf252ad1be2c89b69c2b068fc378daa952ba7f163c4a11628f55a4df523b3ef",
            "0x0000000000000000000000000000000000000000000000000000000000000000",
            "0x00000000000000000000000090f79bf6eb2c4f870365e785982e1f101e93b906"
          ],
          "data": "0x0000000000000000000000000000000000000000000000008ac7230489e80000",
          "blockHash": "0x0ef3f78c30e5c510a982c664bc3b1e94e71b78a71d726e4ea5be50b16428fbb4",
          "blockNumber": "0x4",
          "blockTimestamp": "0x6a08e8b6",
          "transactionHash": "0x4aa6699b6e1cf9faee75ad394a736f07f7ac75eb4e066736a45efd17a0614007",
          "transactionIndex": "0x1",
          "logIndex": "0x1",
          "removed": false
        }
      ],
      "logsBloom": "0x00000000000000000000000000000000000000000000000000000000000000000000000000000000000000000000000000000000000000000000000000000000000000000000000000000008000000000000000000000000000000000000000000000040020000000000000000000800000000000000000000000010000000000000000000000000000000000000000000000000000000000400000200000000000000000000000000000000000000000000000000000000000000000000000000000042000000000000000000000000400000000000000000000000000020000000000000000000000010000000000000000000000000000000000000000000",
      "transactionHash": "0x4aa6699b6e1cf9faee75ad394a736f07f7ac75eb4e066736a45efd17a0614007",
      "transactionIndex": "0x1",
      "blockHash": "0x0ef3f78c30e5c510a982c664bc3b1e94e71b78a71d726e4ea5be50b16428fbb4",
      "blockNumber": "0x4",
      "gasUsed": "0xd049",
      "effectiveGasPrice": "0x28f4ca62",
      "blobGasPrice": "0x1",
      "from": "0xf39fd6e51aad88f6f4ce6ab8827279cfffb92266",
      "to": "0x5fbdb2315678afecb367f032d93f642f64180aa3",
      "contractAddress": null
    },
    {
      "type": "0x2",
      "status": "0x1",
      "cumulativeGasUsed": "0x270cf",
      "logs": [
        {
          "address": "0x5fbdb2315678afecb367f032d93f642f64180aa3",
          "topics": [
            "0xddf252ad1be2c89b69c2b068fc378daa952ba7f163c4a11628f55a4df523b3ef",
            "0x0000000000000000000000000000000000000000000000000000000000000000",
            "0x00000000000000000000000015d34aaf54267db7d7c367839aaf71a00a2c6a65"
          ],
          "data": "0x0000000000000000000000000000000000000000000000008ac7230489e80000",
          "blockHash": "0x0ef3f78c30e5c510a982c664bc3b1e94e71b78a71d726e4ea5be50b16428fbb4",
          "blockNumber": "0x4",
          "blockTimestamp": "0x6a08e8b6",
          "transactionHash": "0x6d6eb53c2dd49e788d26f0f1913db14cd349af98740f647db94940666767bdc9",
          "transactionIndex": "0x2",
          "logIndex": "0x2",
          "removed": false
        }
      ],
      "logsBloom": "0x00000000040000000000000000000000000000000000000000000000000000000000000000000000000000000000000000000000000000000000000000000000000000000000000000000008000000000000000000000000000000000000000000000040020000000000000000000800000000000000000000000010000000000000000000000000000000000000000000000000000000000000000300000000000000000000000000000000000000000000000000000000000000000000000000000042000000000000000000000000000000000000000000000000000024000000000000000000000000000000000000000000000000000000000000000000",
      "transactionHash": "0x6d6eb53c2dd49e788d26f0f1913db14cd349af98740f647db94940666767bdc9",
      "transactionIndex": "0x2",
      "blockHash": "0x0ef3f78c30e5c510a982c664bc3b1e94e71b78a71d726e4ea5be50b16428fbb4",
      "blockNumber": "0x4",
      "gasUsed": "0xd049",
      "effectiveGasPrice": "0x28f4ca62",
      "blobGasPrice": "0x1",
      "from": "0xf39fd6e51aad88f6f4ce6ab8827279cfffb92266",
      "to": "0x5fbdb2315678afecb367f032d93f642f64180aa3",
      "contractAddress": null
    },
    {
      "type": "0x2",
      "status": "0x1",
      "cumulativeGasUsed": "0x34118",
      "logs": [
        {
          "address": "0x5fbdb2315678afecb367f032d93f642f64180aa3",
          "topics": [
            "0xddf252ad1be2c89b69c2b068fc378daa952ba7f163c4a11628f55a4df523b3ef",
            "0x0000000000000000000000000000000000000000000000000000000000000000",
            "0x0000000000000000000000009965507d1a55bcc2695c58ba16fb37d819b0a4dc"
          ],
          "data": "0x0000000000000000000000000000000000000000000000008ac7230489e80000",
          "blockHash": "0x0ef3f78c30e5c510a982c664bc3b1e94e71b78a71d726e4ea5be50b16428fbb4",
          "blockNumber": "0x4",
          "blockTimestamp": "0x6a08e8b6",
          "transactionHash": "0x4b4bff0b72a2c5c7b315d79f862ae8d1bc9c365996f4f5581f0dc16ad73f1f3a",
          "transactionIndex": "0x3",
          "logIndex": "0x3",
          "removed": false
        }
      ],
      "logsBloom": "0x00000004000000000000000000000000000000000000000000000000000000000000000000000000000000000000000000000000000000000000000000000000000000000000000000000008000000000000000000008000000000000000000000000040020000000000000000000800000000000000000000000010000000000000000000000000000000000000000000000000000000000000000200000000000000000000000000000000000000000000000000000000000000000000000000000042800000000000000000000000000000000000000000000000000020000000000000000000000000000000000000000000000000000000000000000000",
      "transactionHash": "0x4b4bff0b72a2c5c7b315d79f862ae8d1bc9c365996f4f5581f0dc16ad73f1f3a",
      "transactionIndex": "0x3",
      "blockHash": "0x0ef3f78c30e5c510a982c664bc3b1e94e71b78a71d726e4ea5be50b16428fbb4",
      "blockNumber": "0x4",
      "gasUsed": "0xd049",
      "effectiveGasPrice": "0x28f4ca62",
      "blobGasPrice": "0x1",
      "from": "0xf39fd6e51aad88f6f4ce6ab8827279cfffb92266",
      "to": "0x5fbdb2315678afecb367f032d93f642f64180aa3",
      "contractAddress": null
    },
    {
      "type": "0x2",
      "status": "0x1",
      "cumulativeGasUsed": "0x41161",
      "logs": [
        {
          "address": "0x5fbdb2315678afecb367f032d93f642f64180aa3",
          "topics": [
            "0xddf252ad1be2c89b69c2b068fc378daa952ba7f163c4a11628f55a4df523b3ef",
            "0x0000000000000000000000000000000000000000000000000000000000000000",
            "0x000000000000000000000000976ea74026e726554db657fa54763abd0c3a0aa9"
          ],
          "data": "0x0000000000000000000000000000000000000000000000008ac7230489e80000",
          "blockHash": "0x0ef3f78c30e5c510a982c664bc3b1e94e71b78a71d726e4ea5be50b16428fbb4",
          "blockNumber": "0x4",
          "blockTimestamp": "0x6a08e8b6",
          "transactionHash": "0x2614132a1399c3a1406a0d914156b97e704bb076bae63010e99960b2ea9efa22",
          "transactionIndex": "0x4",
          "logIndex": "0x4",
          "removed": false
        }
      ],
      "logsBloom": "0x00000000000000000000000000000000000000040200000000000000000000000000000000000000000000000000000000000000000000000000000000000000000000000000000000000008000000000000000000000000080000000000000000000040020000000000000000000800000000000000000000000010000000000000000000000000000000000000000000000000000000000000000200000000000000000000000000000000000000000000000000000000000000000000000000000042000000000000000000000000000000000000000000000000000020000000000000000000000000000000000000000000000000000000000000000000",
      "transactionHash": "0x2614132a1399c3a1406a0d914156b97e704bb076bae63010e99960b2ea9efa22",
      "transactionIndex": "0x4",
      "blockHash": "0x0ef3f78c30e5c510a982c664bc3b1e94e71b78a71d726e4ea5be50b16428fbb4",
      "blockNumber": "0x4",
      "gasUsed": "0xd049",
      "effectiveGasPrice": "0x28f4ca62",
      "blobGasPrice": "0x1",
      "from": "0xf39fd6e51aad88f6f4ce6ab8827279cfffb92266",
      "to": "0x5fbdb2315678afecb367f032d93f642f64180aa3",
      "contractAddress": null
    },
    {
      "type": "0x2",
      "status": "0x1",
      "cumulativeGasUsed": "0x4e1aa",
      "logs": [
        {
          "address": "0x5fbdb2315678afecb367f032d93f642f64180aa3",
          "topics": [
            "0xddf252ad1be2c89b69c2b068fc378daa952ba7f163c4a11628f55a4df523b3ef",
            "0x0000000000000000000000000000000000000000000000000000000000000000",
            "0x00000000000000000000000014dc79964da2c08b23698b3d3cc7ca32193d9955"
          ],
          "data": "0x0000000000000000000000000000000000000000000000008ac7230489e80000",
          "blockHash": "0x0ef3f78c30e5c510a982c664bc3b1e94e71b78a71d726e4ea5be50b16428fbb4",
          "blockNumber": "0x4",
          "blockTimestamp": "0x6a08e8b6",
          "transactionHash": "0x44c3242d8159f387a40957fc3938732aa33d9c2a03e4d8a025820639097d2856",
          "transactionIndex": "0x5",
          "logIndex": "0x5",
          "removed": false
        }
      ],
      "logsBloom": "0x00000000000000000000000000000000000000000000000000000000000000000000000000000000000000000000000000000000000000000000000000000000000000000000000000000008000000000000000000000400000000000000000000000040020000000000000000000800000000000000000000000010000000000000000000000000000000000000000000000000000000000000000200000000000000000000000000000000000000002000000000000000000000000000000000000042000000000000000000000000040000000000000000000000000020000000000000000000000000000000000000000000000000000000000000000000",
      "transactionHash": "0x44c3242d8159f387a40957fc3938732aa33d9c2a03e4d8a025820639097d2856",
      "transactionIndex": "0x5",
      "blockHash": "0x0ef3f78c30e5c510a982c664bc3b1e94e71b78a71d726e4ea5be50b16428fbb4",
      "blockNumber": "0x4",
      "gasUsed": "0xd049",
      "effectiveGasPrice": "0x28f4ca62",
      "blobGasPrice": "0x1",
      "from": "0xf39fd6e51aad88f6f4ce6ab8827279cfffb92266",
      "to": "0x5fbdb2315678afecb367f032d93f642f64180aa3",
      "contractAddress": null
    },
    {
      "type": "0x2",
      "status": "0x1",
      "cumulativeGasUsed": "0xd049",
      "logs": [
        {
          "address": "0x5fbdb2315678afecb367f032d93f642f64180aa3",
          "topics": [
            "0xddf252ad1be2c89b69c2b068fc378daa952ba7f163c4a11628f55a4df523b3ef",
            "0x0000000000000000000000000000000000000000000000000000000000000000",
            "0x00000000000000000000000023618e81e3f5cdf7f54c3d65f7fbc0abf5b21e8f"
          ],
          "data": "0x0000000000000000000000000000000000000000000000008ac7230489e80000",
          "blockHash": "0x105a9ffd977a148949fccb5ede6d3ff16c847cd84735fe49a4ddd52471d687f9",
          "blockNumber": "0x5",
          "blockTimestamp": "0x6a08e8b6",
          "transactionHash": "0x9e2c7223300e6b96e77cc6c7bdc2fd62d2f1fad03f593ac7d095765fd5b0ee17",
          "transactionIndex": "0x0",
          "logIndex": "0x0",
          "removed": false
        }
      ],
      "logsBloom": "0x00800000000000000000000000000000000000000000000000000000000000000000000000000000000000000000000000000000000000000000000000000000000000000000000000000008000000000000000000000000000000000000000000000040020000000000000000000800000000000000000000000010000000000000000000000000000000020000000000000000000000000000000200000000000000000000000000000000000000000000000000000000000000000000000000000042000000000000000000000000000000000000000000000000000020000000000000000000000000000000000000000000000000000000008000000000",
      "transactionHash": "0x9e2c7223300e6b96e77cc6c7bdc2fd62d2f1fad03f593ac7d095765fd5b0ee17",
      "transactionIndex": "0x0",
      "blockHash": "0x105a9ffd977a148949fccb5ede6d3ff16c847cd84735fe49a4ddd52471d687f9",
      "blockNumber": "0x5",
      "gasUsed": "0xd049",
      "effectiveGasPrice": "0x23f224c8",
      "blobGasPrice": "0x1",
      "from": "0xf39fd6e51aad88f6f4ce6ab8827279cfffb92266",
      "to": "0x5fbdb2315678afecb367f032d93f642f64180aa3",
      "contractAddress": null
    },
    {
      "type": "0x2",
      "status": "0x1",
      "cumulativeGasUsed": "0x1a092",
      "logs": [
        {
          "address": "0x5fbdb2315678afecb367f032d93f642f64180aa3",
          "topics": [
            "0xddf252ad1be2c89b69c2b068fc378daa952ba7f163c4a11628f55a4df523b3ef",
            "0x0000000000000000000000000000000000000000000000000000000000000000",
            "0x000000000000000000000000a0ee7a142d267c1f36714e4a8f75612f20a79720"
          ],
          "data": "0x0000000000000000000000000000000000000000000000008ac7230489e80000",
          "blockHash": "0x105a9ffd977a148949fccb5ede6d3ff16c847cd84735fe49a4ddd52471d687f9",
          "blockNumber": "0x5",
          "blockTimestamp": "0x6a08e8b6",
          "transactionHash": "0x9c1628864f7371189059a0fa9e1acf4b239c8b6581eda9711229a9891fbc0e10",
          "transactionIndex": "0x1",
          "logIndex": "0x1",
          "removed": false
        }
      ],
      "logsBloom": "0x00000000000000000000040000000000000000000000000000000000000000000000000000000000000000000000000000000000000000000000000000000000000000000000000000000008000000000000000000000000000008000000000000000040020000000000000000000800000000000000000000000010000000000000000000000000000000000000000000000000000000000000000200000000000000000000000000000000000000000000000000000000000000000000000000000042000000000000000000000000000000000000000000004000000020000000000000000000000000000000000000000000000000000000000000000000",
      "transactionHash": "0x9c1628864f7371189059a0fa9e1acf4b239c8b6581eda9711229a9891fbc0e10",
      "transactionIndex": "0x1",
      "blockHash": "0x105a9ffd977a148949fccb5ede6d3ff16c847cd84735fe49a4ddd52471d687f9",
      "blockNumber": "0x5",
      "gasUsed": "0xd049",
      "effectiveGasPrice": "0x23f224c8",
      "blobGasPrice": "0x1",
      "from": "0xf39fd6e51aad88f6f4ce6ab8827279cfffb92266",
      "to": "0x5fbdb2315678afecb367f032d93f642f64180aa3",
      "contractAddress": null
    }
  ],
  "libraries": [],
  "pending": [],
  "returns": {},
  "timestamp": 1778968758936,
  "chain": 31337,
  "commit": "b2abd9b"
}